:020000040000FA
:06000000FBEF11F01200FD
:020006001200E6
:06000800A4EF0FF012004E
:02000E000000F0
:020010000000EE
:060018006BEF0FF0120077
:02001E000500DB
:10002000AF240000000F0000300000000E000000B0
:10003000690F0000040000008E240000DC000000B6
:100040002100000032240000800000005C0000005D
:0C00500012240000300F0000200000000F
:04005C0050D850EC3C
:100060000BF0D00EE66E070E0BEC08F00F013B51C3
:10007000FDE03B6B0001B10502E19AEC0EF0CCEC27
:100080000EF01ED978EC0BF0F1D733EC08F0DE6AF5
:10009000DD6A2FEC09F037EC08F011501318E8AEC8
:1000A00002D0133404D01250105C135011581BE2CC
:1000B0007DEC08F0020EDBCF10F0030EDBCF11F069
:1000C000D890115004E6A00E105C000E115806E204
:1000D000020EDB2A030EEEE3DB2AECD7DF2A010E49
:1000E000D8E3DB2AD6D7040EE15C02E2E16AE552EE
:1000F000E16EC0EF07F0C00E956E836A1200FBDF61
:10010000936A14EC0AF050EC0BF0836A63EC0FF086
:10011000E80EE66E030E0BEC08F0570EE66E120EBC
:10012000E66E64EC0DF0E552E552AE0EE66E240E7E
:10013000E66E7AEC0DF0E552E552660EE66EB70E0D
:10014000E66EA9EC0DF0E552E552020EE66EE66AA7
:1001500002EC0EF0E552E5520A0EE66EE66A0EEC8F
:100160000EF0E552E5523C0EE66EE66A27EC0EF024
:10017000E552E55296EF0EF042EC08F00EE137EC56
:1001800008F0133404E212500708000E135405E37C
:1001900017EC08F0EF508310836EC0EF07F042ECCD
:1001A00008F00EE137EC08F0133404E212500708AF
:1001B000000E135405E317EC08F0EF1C8314836E54
:1001C000C0EF07F004EC09F0C4EC07F0EF0408E11D
:1001D0006BEC08F00CEC07F0C4EC07F0EF6A08D009
:1001E0006BEC08F0BBEC07F0C4EC07F0010EEF6E0F
:1001F000C0EF07F072EC08F0DE6ADD6A2FEC09F060
:10020000113404E210500708000E11541BE3DECF36
:10021000E6FFDDCFE6FFBBEC07F0F40EE66E010E65
:100220000BEC08F0DECFE6FFDDCFE6FF0CEC07F0CD
:10023000F40EE66E010E0BEC08F0DF2A010EDEE391
:10024000DB2ADCD7020EE15C02E2E16AE552E16EF4
:10025000C0EF07F00F01010E001901E101510EE09E
:10026000140E005D000E01590AE300CF10F0116A70
:10027000010E1016101803E1115001E1010C000CE1
:100280000F01010E021903E1035101E1010C000C01
:100290000F01010E001903E1015101E1010C000CF5
:1002A0000F01010E021903E1035101E1010C000CE1
:1002B0000F01010E161903E1175101E1010C000CA9
:1002C00072EC08F000018C51F50A01E1C1D2030A79
:1002D00001E192D2010A01E182D20F0A01E17DD24D
:1002E000010A01E171D2030A01E158D2170A01E1C2
:1002F00022D2030A01E108D2010A01E1FCD11F0A5E
:1003000001E1E3D1010A01E1D3D1030A01E1CAD13C
:10031000010A01E1B1D1070A01E18AD10F0A01E125
:1003200081D1070A01E163D1010A01E147D1030A42
:1003300001E140D1F90A01E108D1010A01E1C5D08A
:100340000E0A01E185D00D0A3FE0FA0A01E0A7D2CA
:1003500050EC0BF0950EE96E000EEA6E0001915123
:10036000EE240F01506F00019251EE200F01516FEA
:1003700000019351EE200F01526F00019451EE20C5
:100380000F01536F502B000E5123522353230001B2
:10039000996B9A6B9B6B9C6B82EC08F0A16BA26BC8
:1003A000A36BA46B00EC07F009EC09F08EEC08F0ED
:1003B000520EE5EC08F04CEC07F07DEC07F011EC88
:1003C00009F00001050E42D2D7EC05F064EC07F00D
:1003D000F4EC08F0AD6FEE509659AE6FEE509759B1
:1003E000AF6FEE509859B0EC08F0F6EC07F016E25B
:1003F000ACEC09F000EC07F009EC09F0520EE5EC6A
:1004000008F058EC07F07DEC07F015EC09F000015E
:1004100033EC07F082EC08F0080E8C6F34EC09F036
:100420000CE250EC0BF086EC09F04CEC07F01DEC04
:1004300007F011EC09F019EC09F03EEC08F003E0CC
:100440000001FE0E8C6F49EC08F001E128D2E7D0E4
:10045000B2DB64EC07F0D8EC08F0AD6FEE509259C7
:10046000AE6FEE509359AF6FEE509459B0EC08F068
:10047000FEEC07F010E2E0EC08F04DEC08F08EEC3A
:1004800008F04CEC07F009EC09F0470E8CEC09F091
:100490000001060E8C6F34EC09F00CE2E0EC08F081
:1004A00086EC09F058EC07F01DEC07F015EC09F0AC
:1004B0003CEC09F03EEC08F003E00001FE0E8C6F0E
:1004C00049EC08F001E1EBD1AAD07ADBA9EC09F004
:1004D0009D0EE96E000EEA6EEE50955DA96FEE502E
:1004E0009659AA6FEE509759AB6FEE50985938EC69
:1004F00007F0F6EC07F010E2ACEC09F058EC07F06E
:1005000009EC09F0590E8CEC09F0000133EC07F00E
:1005100082EC08F0070E8C6F34EC09F00BE2ACECC7
:1005200009F04CEC07F00DEC09F0470E91EC09F0E6
:1005300019EC09F03EEC08F003E00001FE0E8C6FB0
:1005400049EC08F001E1ABD16AD03FDBD8EC08F010
:10055000A96FEE509259AA6FEE509359AB6FEE50BF
:10056000945938EC07F0A9EC09F08EEC08F0FEEC99
:1005700007F005E2E0EC08F04DEC08F08C6934EC93
:1005800009F00DE2E0EC08F08EEC08F058EC07F012
:100590000DEC09F0590E91EC09F03CEC09F03EEC41
:1005A00008F003E00001FE0E8C6F49EC08F001E159
:1005B00076D135D0E0EC08F0FD0E48D1D2EC08F051
:1005C00021EC09F0ECDAD880190E000198EC07F064
:1005D00004E233EC07F0FC0E8C6F3EEC08F002E016
:1005E00000018C6949EC08F001E159D118D0D2EC36
:1005F00008F021EC09F0DADAD880190E000198EC45
:1006000007F004E233EC07F0FD0E8C6F3EEC08F0CF
:1006100002E000018C6949EC08F001E140D10001E1
:10062000FB0E14D15FEC08F0F40E8C6FB7DA37D103
:1006300050EC0BF0DD0EE66E210EBEEC08F0CD0E98
:10064000E66E210EA5EC09F0A9EC09F0640EA0EC11
:1006500007F003E333EC07F08C693EEC08F004E0AC
:100660005FEC08F0FA0E8C6F1BDE000901E117D178
:100670005FEC08F0F30EEAD0BF0EE66E210E27EC19
:1006800009F002E356EC09F0F0DA000902E061EC4F
:1006900009F00001DA51040801E301D12BEC09F063
:1006A000F20ED4D096DA00092CE00001F00ECED084
:1006B000AD0EE66E210EBEDB320EA0EC07F001E2BD
:1006C000EED0D1DB5FEC08F067D09F0EE66E210E16
:1006D00027EC09F002E356EC09F0C7DA000902E062
:1006E00061EC09F00001DA51040801E3D8D02BECE9
:1006F00009F0EF0EABD093DA000903E00001EE0E33
:10070000A5D00001F10EA2D08E0EE66E210E27ECD0
:1007100009F002E356EC09F0A8DA000903E0CCDAAC
:10072000C4EC08F00001DA51040801E3B8D02BEC66
:1007300009F0ED0E8BD0820EE66E210E7BDB320EC1
:10074000A0EC07F001E2ABD0DE6ADD6A2FEC09F025
:10075000D890115004E6040E105C000E11581AE2F5
:10076000DECFE9FFDDCFEAFF540EE9260F0EEA22C5
:10077000EF50E66EDECFE9FFDDCFEAFFD60EE926C9
:10078000000EEA22E552E750EF6EDF2A010EDEE3AB
:10079000DB2ADCD7E0EC08F0F40E58D0720EE66EDF
:1007A000210E48DB640ECCDB02E35DDB8C695DDA95
:1007B000000902E061EC09F0040E0001DA5D6FE36C
:1007C000DA6B51DBF90E42D004DA000903E00001D4
:1007D000F80E3CD00001F70E39D0F60E37D050ECB1
:1007E0000BF0610EE66E210E25DBD880320EA0DB09
:1007F00056E239DBFA0E2AD050EC0BF0560EE66EBC
:10080000210EA6DB0001010EB16F3EEC08F008E0FE
:100810001DEC08F005E2A507000EA65BA75BA85B30
:100820003FDD000902E076EC08F049EC08F037E023
:10083000A5C095F0A6C096F0A7C097F0A8C098F004
:100840000001A56BA66BA76BA86BF50E8C6F27D06C
:1008500050EC0BF04A0EE66E210E7ADB3EEC08F00F
:1008600007E0EBDB05E2A507000EA65BA75BA85B34
:1008700017DD000902E076EC08F049EC08F00FE023
:10088000A5C091F0A6C092F0A7C093F0A8C094F0C4
:100890000001A56BA66BA76BA86BB16B8C69020EF0
:1008A000E15C02E2E16AE552E16E6AD329DB11AE56
:1008B00002D01268136893EC08F003E1040EDB6ABF
:1008C0004AD038EC09F004E1ED5002E1100E3FD0BF
:1008D000BDDA020EEE1804E1ED5002E1200E37D031
:1008E000B5DA030EEE1804E1ED5002E1300E2FD020
:1008F000ADDA040EEE1804E1ED5002E1400E27D00F
:10090000A5DA050EEE1804E1ED5002E1500E1FD0FD
:100910009DDA060EEE1804E1ED5002E1600E17D0EC
:1009200095DA070EEE1804E1ED5002E1700E0FD0DB
:100930008DDA080EEE1804E1ED5002E1800E07D0CA
:1009400085DA090EEE1809E1ED5007E1900EF36E1D
:10095000040EF3CFDBFF050EDB6ACADAEE50ED10B2
:1009600003E1060EDB6A4DD0C3DA010EEE1804E196
:10097000ED5002E1010E41D0BBDA020EEE1804E1A7
:10098000ED5002E1020E39D0B3DA030EEE1804E1A5
:10099000ED5002E1030E31D0ABDA040EEE1804E1A3
:1009A000ED5002E1040E29D0A3DA050EEE1804E1A1
:1009B000ED5002E1050E21D09BDA060EEE1806E19D
:1009C000ED5004E1060EF36EDB6E1BD091DA070EDC
:1009D000EE1804E1ED5002E1070E0FD089DA080E9F
:1009E000EE1804E1ED5002E1080E07D081DA090E9D
:1009F000EE1809E1ED5007E1090EF36E060EF3CF94
:100A0000DBFF070EDB6A946A060EDBCF12F0070EDF
:100A1000DBCF13F0040EDB501224106E050EDB50FA
:100A20001320116E1050826E080EE15C02E2E16A42
:100A3000E552E16EA5D264DA11AE02D012681368F5
:100A400072DB03E1040EDB6A4AD038EC09F004E102
:100A5000ED5002E1100E3FD0F9D9020EEE1804E17C
:100A6000ED5002E1200E37D0F1D9030EEE1804E16B
:100A7000ED5002E1300E2FD0E9D9040EEE1804E15A
:100A8000ED5002E1400E27D0E1D9050EEE1804E149
:100A9000ED5002E1500E1FD0D9D9060EEE1804E138
:100AA000ED5002E1600E17D0D1D9070EEE1804E127
:100AB000ED5002E1700E0FD0C9D9080EEE1804E116
:100AC000ED5002E1800E07D0C1D9090EEE1809E100
:100AD000ED5007E1900EF36E040EF3CFDBFF050E31
:100AE000DB6A06DAEE50ED1003E1060EDB6A4DD04C
:100AF000FFD9010EEE1804E1ED5002E1010E41D0E4
:100B0000F7D9020EEE1804E1ED5002E1020E39D0E1
:100B1000EFD9030EEE1804E1ED5002E1030E31D0DF
:100B2000E7D9040EEE1804E1ED5002E1040E29D0DD
:100B3000DFD9050EEE1804E1ED5002E1050E21D0DB
:100B4000D7D9060EEE1806E1ED5004E1060EF36E5D
:100B5000DB6E1BD0CDD9070EEE1804E1ED5002E19B
:100B6000070E0FD0C5D9080EEE1804E1ED5002E1D2
:100B7000080E07D0BDD9090EEE1809E1ED5007E1C6
:100B8000090EF36E060EF3CFDBFF070EDB6A080ECD
:100B9000E15C02E2E16AE552E16EF2D198D308DA53
:100BA000EAD9FDDA0ADAE7D9C8DBB1D290D382DB21
:100BB000E2D903DAACD27EDB2FD9FFD9DCD98DD3D1
:100BC000C0DBD9D9F5D928D991D3E9DAF1D9D3D96C
:100BD0008DD349DADFD9DF6A050EDF5C17E2DAD997
:100BE000010EDB6A70DA0AE24EDBD20E1126000E2D
:100BF0002FDA01E082DA010EDB2AF4D739DB04E1D7
:100C0000ED5002E1DF2802D0DF2AE6D7106E040E95
:100C1000E15C02E2E16AE552E16E1050B1D123DA03
:100C2000B9D9DF6A050EDF5C17E2B4D9010EDB6AC1
:100C30004ADA0AE228DBD60E1126000E09DA01E0B4
:100C40005CDA010EDB2AF4D713DB04E1ED5002E19C
:100C5000DF2802D0DF2AE6D7106E040EE15C02E244
:100C6000E16AE552E16E10508BD1CEDAE652DF6ACE
:100C7000DF500F081EE3EA6ADF34FE0BEA36E96E46
:100C8000000EE9260F0EEA22010EEE1810E1ED50DB
:100C90000EE1DF50EA6AC20FE96E000EEA22EFCFE2
:100CA00058FFDF500F01596F5A6B010E03D0DF2A36
:100CB000DFD7000EE55264D10F0159515A1104E1FA
:100CC000480EE66E210E25DA0F01010E591906E1D4
:100CD0005A5104E1460EE66E210E1BDA0F01020E98
:100CE000591906E15A5104E1460EE66E210E11DA59
:100CF0000F01030E591906E15A5104E1440EE66E44
:100D0000210E07DA0F01040E591906E15A5104E1C8
:100D1000420EE66E210EFDD90F01050E591906E1AE
:100D20005A5104E1400EE66E210EF3D90F01060E72
:100D3000591906E15A5104E13E0EE66E210EE9D939
:100D40000F01070E591906E15A5104E13C0EE66EF7
:100D5000210EDFD90F01080E591906E15A5104E19D
:100D60003A0EE66E210ED5D90F01090E591906E18A
:100D70005A5104E1380EE66E210ECBD90F010A0E4E
:100D8000591906E15A5104E1360EE66E210EC1D919
:100D90000F010B0E591906E15A5104E1340EE66EAB
:100DA000210EB7D90F010C0E591906E15A5104E171
:100DB000BD0EE66E210EADD90F010D0E591906E1DB
:100DC0005A5104E1320EE66E210EA3D90F010E0E28
:100DD000591906E15A5104E1300EE66E210E99D9F7
:100DE0000F010F0E591906E15A5104E12E0EE66E5D
:100DF000210E8FD91200010EE66E08EC0CF07CD2A9
:100E0000FBD9106EEE505159116EEE505259126EC0
:100E1000EE505359136E1200CFEC00F0E552E5523C
:100E20001200E66EE66AB7EC0BF0146E060EE15E99
:100E300014501200A3D9A9EF09F01006000E115AA0
:100E4000125A135A25DA13C0E6FF1200D950020FC6
:100E5000E96EDACFEAFF1200E66AA6EC0BF0E55283
:100E6000E552E55212008D6B8E6B8F6B906B12000A
:100E7000B0D9C2D90001AD6FEE500F015159000138
:100E8000AE6FEE500F0152590001AF6FEE500F01DF
:100E900053590001B0EF08F0A7D9106EEE509659E3
:100EA000116EEE509759126EEE509859136E120053
:100EB0007FD9106EEE509259116EEE509359126E0A
:100EC000EE509459136E120044DA96D90001A96FBE
:100ED000EE500F0151590001AA6FEE500F01525907
:100EE0000001AB6FEE500F0153590001E9EF08F01C
:100EF000D9CFE9FFDACFEAFF1200CAD9E66E1200B5
:100F000083D9080EE126FB0EDBCF06F0FC0EDBCF0B
:100F100007F0FD0EDBCF08F0FE0EDBCF09F006DA9E
:100F200002C0DEFF03C0DDFF9AD9126A136A120005
:100F30008D55000E8E55000E8F55000E90551200E7
:100F40008D5D000E8E59000E8F59000E90591200C3
:100F500015D9A5C0E6FFA6C0E6FFA7C0E6FFA8C05A
:100F6000E6FFE66A010EE66EB7EC0BF0106E060EB9
:100F7000E15E10501200BCEC00F0E552E5521200A8
:100F8000E552E7CFD9FF12008AD9BA0EE926000E42
:100F9000EA221200010EF36E020EF3CFDBFF030E06
:100FA000DB6A1200EA6A540FE96E0F0EEA221200A1
:100FB00084C0E6FF85C0E6FF12008AC0E6FF8BC052
:100FC000E6FF120080C0E6FF81C0E6FF120088C085
:100FD000E6FF89C0E6FF120082C0E6FF83C0E6FF9D
:100FE000120086C0E6FF87C0E6FF1200FDD8EE5073
:100FF0009659EE509759EE5098591200D9D8EE50A4
:101000009259EE509359EE5094591200EC0EE66E40
:10101000210EBEEF08F0E66E45EC00F0E552E55219
:101020001200992B000E9A239B239C23120037D980
:10103000B20EE926000EEA221200D880000E00014E
:10104000A555000EA655000EA755000EA855120076
:101050001222010EDB501124E96E000E1220EA6EFE
:10106000EF50105C1200D0D8040EE1261200FD0EE5
:10107000DBCF12F0FE0EDBCF13F0120048EC01F0D4
:1010800000091200C1D8FE0EDBCF11F0800E111442
:10109000120058EC01F000091200996B9A6B9B6BDF
:1010A0009C6BA16BA26BA36BA46B1200EFCF10F033
:1010B000DF50040DF3CF11F0F4CF12F0120050EC1A
:1010C0000BF000011200040EF36E010EDBCFF4FFF3
:1010D000F350F45C1200FD0EDBCFE6FFFE0EDBCF1B
:1010E000E6FF120091D8020EE12612000001A52BA6
:1010F000000EA623A723A8231200020EDB6A030E0C
:10110000DB6A12009D6B9E6B9F6BA06B120084DEEE
:10111000E4D0E66EDAC0E6FFFBEF06F00B0EE66EFB
:10112000220EA5EF09F0D950FB0FE96EFF0EDA2071
:10113000EA6E1050EE5C066E1150EE58076E1250BB
:10114000EE58086E1350EE58096EF0D8020E06C025
:10115000DBFF030E07C0DBFF79DEEE50ED1012005F
:10116000B06FADC0E6FFAEC0E6FFAFC0E6FFE66E13
:1011700062DCC2D00A0E55DE520EC3D0E66EE66ABD
:10118000E66A08EC0CF0B8D00001DA510BDF58CF5A
:10119000EFFFDA2B33EF07F03FDE9DEF09F0D1D8F8
:1011A0000CEF07F08D2B000E8E238F23902312005F
:1011B000A10EE96E000EEA6EEE500001915D120084
:1011C00050EC0BF0000133EF07F0E66EE66A2CEF0F
:1011D00007F0AC6FA9C0E6FFAAC0E6FFABC0E6FF10
:1011E000E66E56EC04F088D09D0EE96E000EEA6EB5
:1011F000EE500001955D1200990EE96E000EEA6E48
:10120000EE500F01505D1200D9CFE6FFE1CFD9FFBC
:10121000120073DE020E11EF07F00FDE020E11EF67
:1012200007F00A0EFEDD470E6CD00A0EFADD590EED
:1012300068D0000118DEF5DE9D2B9E239F23A0239E
:101240001200FD0EE66E210E80D806EF08F0F2DDEA
:10125000960EA0EF07F0DA6B06DE5FEF08F0DECF48
:1012600010F0DDCF11F01200D880190E98EF07F0C2
:10127000EDDD010EEE1812000001D3DEA12BA2233A
:10128000A323A4231200010EDB508CDE56EF08F0DE
:1012900010C0E6FF11C0E6FF12C0E6FF1200FD0E0F
:1012A000DBCFE9FFFE0EDBCFEAFF1200DCDDF40E40
:1012B0008C6F120087DE5FDE8FDEAEDD79DECCEF75
:1012C00008F0BD0EE66E210E24DFC4EF08F070DEDC
:1012D000A3DD65DF72DE60DF1AD7060EE66EE66A12
:1012E0009BDD070EE66EE66A0CEF07F07ADE43DE62
:1012F0006EDE92DD62DE0BD7E552E552E552E55235
:101300001200E66E080EE66E2CEF07F007DF78DDC0
:1013100084DF520EE5EF08F058DF72DDEEDDBAEF44
:1013200008F053DF6DDD89DDBAEF08F00A0E0B6EB1
:101330000C6A0D6A0E6A63EF10F053DE6DDDE7EFA5
:1013400007F040DE69DDECEF07F0E66EE66AFBEFE2
:1013500006F00001D2EF08F050EC0BF08EEF08F031
:1013600095DBDECF10F0DDCF11F0FE0EDB5000017B
:1013700011AE02D0D89003D0105C000E115813E2C9
:101380000FDBD6DA04E6010E105C000E115806E2FF
:10139000020EDB2A030EF5E3DB2AF3D7DF2A010E68
:1013A000E0E3DB2ADED7040EE15C02E2E16AE5520B
:1013B000E16E5AD26BDBDECF10F0DDCF11F0126A96
:1013C000136A11AE02D012681368D950FB0F21DBEB
:1013D000EE50105CEE501158EE501258EE5013586B
:1013E00013E2DEDAA5DA04E6A00E105C000E115856
:1013F00006E2020EDB2A030EF5E3DB2AF3D7DF2A2F
:10140000010ED9E3DB2AD7D7040EE15C02E2E16AE0
:10141000E552E16E29D240DBF00BD7DAFE0EDB3865
:10142000F00B81120EDA20D247DB190EC7DA0F0E4D
:101430008116F80E81160F0E8116300EC6DA300EA8
:10144000C4DA300EC2DA818AFCD9280EE66EE3DFF8
:10145000E5520C0EE66EDFDFE552E55205D21CDBED
:101460008112818600DB8196FEDAFED1F8D9819463
:1014700030DAFAD1F4D981842CDA8194F5D1EFD91C
:10148000FE0EDBCFE6FFF6DFE552EED1E8D9FD0E2A
:10149000DBCFF6FFFE0EDBCFF7FF0800F5500DE0C7
:1014A000FD0EDBCFF6FFDB2AFE0EDBCFF7FF01E3FD
:1014B000DB2A0800F550B2DAEAD7D6D1D0D9050E2A
:1014C000E126010EF36EDB6E6BDA040EDB6ADF6A77
:1014D000DFCF10F0116A10BE116854DA11501318E2
:1014E000E8AE02D0133404D01250105C13501158DF
:1014F0001FE2FD0EDBCF10F0FE0EDBCF11F0126A03
:10150000136A11AE02D012681368D950010FE96E48
:10151000DACFEAFF10C00BF011C00CF012C00DF0D2
:1015200013C00EF085DA5CEC11F08BDADF2AD0D72D
:10153000010EDBCF10F0020EDBCF11F0030EDBCF7C
:1015400012F0040EDBCF13F010C006F011C007F04C
:1015500012C008F013C009F0050EE15C02E2E16A76
:10156000E552E16E81D17BD9020EE126DF6AFB0EE6
:10157000DBCF10F0FC0EDBCF11F0FD0EDBCF12F055
:10158000FE0EDBCF13F0105011101210131003E1F8
:10159000300E44DA36D0D950FB0FD3D901E6D7D973
:1015A00005E22D0E3BDAD950FB0FA5D9DE520A0E0B
:1015B000DD6EEFD9E8AE02D0103403D0E750D8800A
:1015C00010541FE2D6D914BE156842D9EED902DAFA
:1015D000C7D90BE0010EDF6EDB04186E196A18BE66
:1015E00019684FD9F7D968D903D0DF5002E0300E1F
:1015F00015DABFD914BE15682BD9D950FB0F38D9CD
:10160000D8D7020EE15C02E2E16AE552E16E2CD12C
:1016100053DAFE0EDB50010A04E0010A04E1800EF9
:1016200001D0C00EDF6EFD0EDB50DF24DF6EDFCF9A
:10163000E6FF1CDFE552E55217D1010EE66E16DF1C
:10164000E55258EF0DF0D1D9D950F90FE2D9EECFCC
:10165000E6FFEECFE6FFEECFE6FFEFCFE6FF83DF5C
:101660002EDA02D1C2D9FB0EDBCFE6FFFC0EDBCFB8
:10167000E6FF0CDFE552E552F7D0F1D865CF10F068
:1016800066CF11F0040ED89010361136E806FBE153
:1016900043D9FE0EDBCFEFFF672B000E6823E4D0AB
:1016A0000BDADF6ADFCF10F0100EE76E1018E8AE2D
:1016B00002D0E73402D0E750105C18E2DFCFE9FF38
:1016C000EA6AE9BEEA68DD0EE926000EEA22200E8B
:1016D000EF6EDFCFE9FFEA6AE9BEEA68ED0EE926C0
:1016E000000EEA22200EEF6EDF2ADCD7E552BCD0D6
:1016F000E3D9DED9DF6A100EDF5C02E2B9D9FBD78D
:10170000D1D9100EDF5C02E2BAD9FBD7E552ACD0DA
:10171000D3D90001DC51010A0DE0010A14E1C8D956
:10172000DF6A100EDF5C02E2A3D9FBD70001010ED5
:10173000DC6F0AD0B7D9100EDF5C02E2A0D9FBD76C
:101740000001DC6B01D0DC6BE5528ED088D8A8D8C4
:1017500065CF10F066CF11F0040ED8901036113618
:10176000E806FBE1D9D8FC0EDBCFEFFF7DD077D8C0
:10177000020EE126DF6A94D8F90EDBCF10F0FA0EE4
:10178000DBCF11F0FFD8105011101210131003E12D
:10179000300EF4D836D0D950F90FD3D801E6D7D8C7
:1017A00005E22D0EEBD8D950F90FA5D8DE520A0E5E
:1017B000DD6EEFD8E8AE02D0103403D0E750D88009
:1017C00010541FE2D6D814BE156842D8EED816D9E8
:1017D000C7D80BE0010EDF6EDB04186E196A18BE65
:1017E00019684FD80BD968D803D0DF5002E0300E0B
:1017F000C5D8BFD814BE15682BD8D950F90F38D822
:10180000D8D7020EE15C02E2E16AE552E16E2CD02B
:1018100026D846D8FB0EDBCFF6FFFC0EDBCFF7FF5A
:101820000800F5500DE0FB0EDBCFF6FFDB2AFC0EC7
:10183000DBCFF7FF01E3DB2A0800F5509FD8EAD79A
:1018400013D08186010EBAD88196010EDEEF0CF01E
:1018500014C0E6FF15C0E6FFE5D82AEF0DF0D9CF9A
:10186000E6FFE1CFD9FF1200E552E7CFD9FF120022
:10187000D0D89BD8DDD894EC11F0E3D8010EDB066C
:10188000120018C0E6FF19C0E6FFCCD806C014F05D
:1018900007C015F008C016F009C017F0D5EF0CF01E
:1018A000FE0EDB50010B0F01656F666BFD0EDB500A
:1018B0000F0B676F686B1200DBCF09F094EC11F02F
:1018C000C9D8300E1026000E1122122213221050F9
:1018D0001200C9D8FE0EDBCFE6FFC1DDE552FE0ED9
:1018E000DB38F00BE66EBBDDE5521200EA22EF506A
:1018F00095D8DF2A12008DD8000EEE6CEF1EEE2276
:10190000EF1EEE22EF1EEF22ED52ED52ED521200CD
:101910007FDEE552E5521200DD0E1026000E112288
:1019200010500F016725E96E11506821EA6E120010
:10193000020EDBCF10F0030EDBCF11F0D890115068
:10194000120067D8D890030EEB50000A1200000E68
:10195000EE5C000EEE58000EEE58000EEE5812002F
:10196000DBCF09F094EC11F00650071008100910B5
:101970001200010EDB04146E156A1200E66E7DDEA5
:10198000E5521200FB0EDBCF12F0FC0EDBCF13F0A2
:101990001200010EDBCF10F0000EE76E10181200DF
:1019A000020EDB6A030EDB6A120006C00BF007C0F2
:1019B0000CF008C00DF009C00EF01200E66EE66AE9
:1019C000E66AE66AF7DC5FEF0DF081123ADF0F0E90
:1019D00081161200FB0EDBCF06F0FC0EDBCF07F00A
:1019E000FD0EDBCF08F0FE0E120039DFFD0EDBCF5F
:1019F000E6FFFE0EDBCFE6FF88EF0CF0F90EDBCF43
:101A000006F0FA0EDBCF07F0FB0EDBCF08F0FC0E82
:101A10001200E96EFF0EDA20EA6E1200E66E2FDD8C
:101A2000E55212000A0EE66EE66A48DD5FEF0DF041
:101A3000EECF06F0EECF07F0EECF08F0EFCF09F0D3
:101A4000120005C0EDFF04C0EDFF03C0EDFF02C0B2
:101A5000EFFF120006C010F007C011F008C012F02E
:101A600009C013F01200010EE66E7ADCE552120096
:101A7000DF50EA6ADD0FE96E000E76EF0CF0DF5002
:101A8000EA6AED0FE96E000E76EF0CF0E8DE040E68
:101A9000E126DE6ADD6A1200E2DE0F0E8116FE0E1E
:101AA000DB501200E66A010EE66E32DFDF6A1200DA
:101AB000E66AE66A88EF0CF0D2DEE6521200E552E2
:081AC000E552E552E552120067
:081AC800F1D8D59EFD0EDBCF25
:101AD00030FFFE0EDBCF31FFD59C05D9D59AD586D8
:101AE000F28AF294F184D58EE6D0D59E1200FBD80E
:101AF000D58E1200DBD8CD90FD0EDBCF32FFFE0E6F
:101B0000DBCF33FFF7D89D809E909F90CD8ECD8CFC
:101B1000CD98CD9ACD96CD92CD80CDD0EBD8CD803D
:101B20001200CD901200C2D8CA94CC6AFE0EDB50CF
:101B30000F01346F356BCB6E9D829E929F92CA903F
:101B4000CA92CA84B8D034CFCBFFCA841200CA94D8
:101B50001200ACD8B190FD0EDBCF36FFFE0EDBCF0E
:101B600037FFCFD80750B36ECCD8B5D8B26EA082AD
:101B7000A192A292B18EB198B19AB192B1809BD04C
:101B8000C0D80350B26EBDD89ED8B36EB1801200DB
:101B9000B19012000F01402B000E41234851405DCF
:101BA0004951415904E3406B416B010E386F1200FB
:101BB0000F01422B000E43234A51425D4B514359C2
:101BC00004E3426B436B010E396F12000F01442B8B
:101BD000000E45234C51445D4D51455904E3446B7F
:101BE000456B010E3A6F12000F01462B000E472382
:101BF0004E51465D4F51475904E3466B476B010E0A
:101C00003B6F120053D8FD0EDBCF48FFFE0EDBCF3B
:101C100049FF0F01406B416B386B4DD047D8FD0E2B
:101C2000DBCF4AFFFE0EDBCF4BFF050E0D6E0E6ABB
:101C30004ACF08F04BCF09F010EC10F008C04AFF73
:101C400009C04BFF0F01426B436B396B34D02ED868
:101C5000FD0EDBCF4EFFFE0EDBCF4FFF0A0E0D6EEB
:101C60000E6A4ECF08F04FCF09F010EC10F008C00C
:101C70004EFF09C04FFF0F01466B476B3B6B1BD0FC
:101C8000186A1650135C106E17501458116E1850C5
:101C90001558126E0C6A010E0D6E0E6A10C007F018
:101CA00011C008F012C009F036EF10F0D9CFE6FFEE
:101CB000E1CFD9FF1200E552E7CFD9FF1200136838
:101CC0001468156A120007C010F008C011F009C0AE
:101CD00012F00750120003C010F004C011F005C04C
:101CE00012F00350120014D80350D66E11D8EBDF57
:101CF000D76E120014D80750CF6E11D8ECDFCE6E1D
:101D00001200DDDF36CF16F037CF17F040EF0EF0C0
:101D1000D6DF30CF16F031CF17F040EF0EF0CFDF27
:0C1D200032CF16F033CF17F040EF0EF07A
:041D2C000F0E946E94
:101D300082681200ACD8A0D8115004E6080E105CDE
:101D4000000E11581FE29ED8280EE9260F0EEA2237
:101D5000EF5082140FE1B4D8EECF10F0EFCF11F0B6
:101D6000010E1026000E1122ABD810C0EEFF11C0DC
:101D7000EDFF03D0A5D8EE6AED6ADF2A010EDBE3A2
:101D8000DB2AD9D7040EE15C02E2E16AE552E16E9A
:101D9000E552E7CFD9FF12007AD86ED8115004E689
:101DA000040E105C000E115855E26CD8200EE92686
:101DB0000F0EEA22EF1C826E020EDB6A030EDB6A54
:101DC000020EDBCF10F0030EDBCF11F0D8901150D4
:101DD00004E6040E105C000E115837E2020EDBCF51
:101DE000E9FF030EDBCFEAFF240EE9260F0EEA22FD
:101DF000EF50821421E1DECF14F0DDCF15F0D89042
:101E000014361536D89014361536020EDB501424CD
:101E1000E96E030EDB501520EA6E26D8EECF12F0E5
:101E2000EFCF13F0010E1226000E132239D812C084
:101E3000EEFF13C0EDFF03D033D8EE6AED6A020E59
:101E4000DB2A030EBDE3DB2ABBD7DF2A010EA5E3A5
:101E5000DB2AA3D7040EE15C02E2E16AE552E16EFF
:101E6000E552E7CFD9FF1200D890E936EA36000EE6
:101E7000E9260F0EEA221200DECF10F0DDCF11F0BE
:101E8000D8901200DECFE9FFDDCFEAFF1200D9CFF4
:101E9000E6FFE1CFD9FF040EE126DE6ADD6A12001B
:101EA000EBDF10361136D89010361136020EDB50AB
:101EB0001024E96E030EDB501120EA6E34EF0FF0B0
:061EC000E1DF34EF0FF03A
:0A1EC600F28ED08EF28C1200F19C17
:101ED000F292F2881200D8CFE4FFE0CFE4FFE46E84
:101EE00062D800EE00F0100EE80403E3EECFE4FF4A
:101EF000FBD700EE10F00A0EE80403E3EECFE4FF98
:101F0000FBD7E652F2B477D89EB07CD8A1B281D884
:101F1000F2B2F2929EBA9E9AE55200EE19F00A0EC3
:101F2000E80403E3E5CFEDFFFBD700EE0FF0100E62
:101F3000E80403E3E5CFEDFFFBD74AD8E550E5CF52
:101F4000E0FFE5CFD8FF10002ED800EE00F0100E15
:101F5000E80403E3EECFE4FFFBD700EE10F00A0E37
:101F6000E80403E3EECFE4FFFBD7E652F2B443D834
:101F70009EB048D8A1B24DD8F2B2F2929EBA9E9AC3
:101F8000E55200EE19F00A0EE80403E3E5CFEDFF99
:101F9000FBD700EE0FF0100EE80403E3E5CFEDFFF2
:101FA000FBD716D81100DACFE4FFE2CFDAFFE9CF92
:101FB000E4FFEACFE4FFF6CFE4FFF7CFE4FFF5CF8D
:101FC000E4FFF3CFE4FFF4CFE4FFFACFE4FF120025
:101FD000E5CFFAFFE5CFF4FFE5CFF3FFE5CFF5FF5F
:101FE000E5CFF7FFE5CFF6FFE5CFEAFFE5CFE9FF65
:101FF000E5CFDAFF120075EC0DF0F29477EC0DF0FE
:10200000CAEF0DF091EC0DF09E908EEC0DF0D8EF34
:102010000DF0C8EC0DF0A192C0EC0DF0F4EF0DF056
:10202000006A0EAE19EF10F00D6C0E1EE86A0E225B
:10203000001E09AE21EF10F0086C091EE86A0922A3
:10204000001ED5EC11F009BE31EF10F000AE000C0F
:10205000086C091EE86A0922046C051EE86A05225C
:10206000000C00BE28EF10F00188FF0C006A0EAED5
:1020700041EF10F00C6C0D1E0E1EE86A0D220E22B0
:10208000001E09AE4BEF10F0076C081E091EE86A2F
:1020900008220922001EB8EC11F009BE5EEF10F014
:1020A00000AE000C076C081E091EE86A082209220F
:1020B000036C041E051E04220522000C00BE52EF14
:1020C00010F00188FF0C006AE86A0EAE70EF10F0A5
:1020D0000B6C0C1E0D1E0E1E0C220D220E22001E5D
:1020E00009AE7BEF10F0066C071E081E091E0722C2
:1020F00008220922001E94EC11F009BE92EF10F0A4
:1021000000AE000C066C071E081E091EE86A0722B6
:1021100008220922026C031E041E051E032204224B
:0E2120000522000C00BE82EF10F00188FF0CBB
:02212E0044006B
:1021300023003000430039003800370042003600E9
:102140003500340041003200310054494D452059DA
:10215000454C4C4F570054494D4520475245454E3C
:102160000057524F4E472050415353574F5244212E
:102170002100454E5445522050415353574F52442D
:1021800021005355434345535346554C2100434882
:10219000414E47452050415353574F524421005020
:1021A000415353574F5244204C5632210057524FFF
:1021B0004E472050415353574F524421002A00505C
:1021C000415353574F5244204C56312100505245F1
:1021D000535320323A4348414E474521005052451F
:1021E000535320313A454E544552210050524553E5
:1021F0005320312D2D3E4D4F444520310053544145
:1022000047453A204D4F44452032005354414745FD
:092210003A204D4F4445203100F5
:06221A001E0EF66E000E20
:10222000F76E000EF86E0F010900F550606F09009F
:10223000F550616F03E1606701D03DD00900F550B2
:102240005B6F0900F5505C6F0900F5505D6F090088
:102250000900F550E96E0900F550EA6E0900090021
:102260000900F5505E6F0900F5505F6F0900090025
:10227000F6CF62FFF7CF63FFF8CF64FF5BCFF6FFC7
:102280005CCFF7FF5DCFF8FF0F015E5302E15F53B4
:1022900007E00900F550EE6E5E07F8E25F07F9D738
:1022A00062CFF6FF63CFF7FF64CFF8FF0F0160073F
:0822B000000E615BBFD71200B4
:0822B80006500B02F3CF02F007
:1022C000F4CF03F00C02F3500326000EF420046E4A
:1022D00006500D02F3500426000EF420056E065041
:1022E0000E02F350052607500B02F3500326F4505C
:1022F0000422000E052207500C02F3500426F4506D
:10230000052207500D02F350052608500B02F3502A
:102310000426F450052208500C02F35005260950FB
:082320000B02F3500526120028
:08232800056A046A036A026AF7
:10233000200EE76ED8900636073608360936023684
:102340000336043605360B50025C0C5003580D5012
:1023500004580E50055809E30B50025E0C50035A06
:102360000D50045A0E50055A062AE72EE4D71200E3
:10237000056A046A036A180EE76ED89007360836B5
:1023800009360336043605360C50035C0D500458EC
:102390000E50055807E30C50035E0D50045A0E50C2
:0A23A000055A072AE72EEAD71200BB
:0623AA00056A046A100E32
:1023B000E76ED89008360936043605360D50045CB1
:1023C0000E50055805E30D50045E0E50055A082ABC
:0623D000E72EF0D7120019
:0A23D600800EF36E00EE00F00F0E13
:1023E00001D81200EA6002D0EE6AFCD7F350E9602F
:0623F0001200EE6AFCD7AA
:0A23F6001EEE00F02EEE00F0F86A73
:10240000019C0DEC11F003EC00F02EEC00F0FBD77A
:022410001200B8
:0E2412000000000000000000000000000000BC
:1024200000000000000000000000010001000100A9
:022430000100A9
:0E243200000001000200030004000500FF008E
:10244000000000030000000A00000000000000007F
:10245000000000000000000000000000000000007C
:10246000000000000102040810204080000000006D
:102470000000000001020341040506420708094369
:0E2480002A004544010203040101010100008D
:02248E0000202C
:10249000202020202020202020202020202020203C
:0F24A0002020202020202020202020202020204D
:0124AF00002C
:1024B000000000000000000000000000000000001C
:1024C00000000000000000000000000000000010FC
:0F24D0002040800102040801020408102040800F
:020000040030CA
:0100010002FC
:0100020003FA
:010003001EDE
:010005008179
:010006008178
:010008000FE8
:01000900C036
:01000A000FE6
:01000B00E014
:01000C000FE4
:01000D0040B2
:00000001FF
